:100000000C942A000C9468000C9450000C943E0050
:100010000C943C000C943C000C943C000C94850027
:100020000C943C000C943C000C943C000C943C0060
:100030000C943C000C943C000C943C000C943C0050
:100040000C943C000C943C000C943C000C943C0040
:100050000C943C0011241FBECFE5D8E0DEBFCDBF1D
:1000600020E0A0E6B0E001C01D92A736B207E1F79C
:100070000E9497000C942D010C9400001F920F9287
:100080000FB60F9211248F938FB780688FBF8EB5F4
:1000900085608EBD8F910F900FBE0F901F901895A9
:1000A0001F920F920FB60F9211248F938FB7806813
:1000B0008FBF8EB58E7F8EBD8EB58D7F8EBD8EB57A
:1000C0008B7F8EBD8F910F900FBE0F901F90189554
:1000D0001F920F920FB60F9211248F93EF93FF93FD
:1000E0008FB780688FBFE0E6F0E010821182128245
:1000F0001382148215821DBC1CBCFF91EF918F915D
:100100000F900FBE0F901F9018951F920F920FB671
:100110000F9211248F938FB780688FBF81E08093F7
:1001200066008F910F900FBE0F901F9018958FB79C
:1001300080688FBF84B38F6084BB15BA8AB38F6326
:100140008ABB81E08BBB8A98929A8BB780648BBF05
:1001500085B7826085BF8B9885B78C6085BF8BB76C
:1001600080688BBFBA9AC29A84B78F7B84BF8BB7E3
:1001700080628BBF8FB588608FBD8EB58D608EBD60
:100180001DBC1CBC88EE93E09BBD8ABD89B7806115
:1001900089BF21E030E0E0E6F0E090E080E0A901F6
:1001A000082E01C0440F0A94EAF74BBB419145BBAE
:1001B000A3EFB1E01197F1F700C00000019686307F
:1001C000910569F780916600813029F78091600080
:1001D0008F5F809360008A3089F4909162008091F3
:1001E00061008F5F8093610010926000863031F46F
:1001F00081E0890F8093620010926100809162001B
:100200008A3089F490916400809163008F5F8093BD
:10021000630010926200863031F481E0890F809390
:10022000640010926300809164008A3099F4809198
:1002300065008F5F8093650010926400863051F4F2
:1002400010926000109261001092620010926300A0
:0E02500010926500109266009ECFF894FFCFCA
:00000001FF
