:020000040000FA
:100000000C942A000C9434000C9434000C943400AA
:100010000C9434000C9434000C9434000C94340090
:100020000C9434000C9434000C9434000C94340080
:100030000C9434000C9434000C9434000C94340070
:100040000C9434000C9434000C9434000C94340060
:100050000C94340011241FBECFE5D8E0DEBFCDBF25
:100060000E947F000C94BC000C9400008A3038F58C
:10007000E82F880FFF0BE15CFF4F0C94B60049009E
:1000800051005800600066006B00710078007A0033
:100090007D00D99ADA9ADB9ADC9ADD9ADE9ADF98AB
:1000A0000895D998DA9ADB9ADC98DD98DE98F7CF34
:1000B000D99ADA98DB9ADC9ADD9ADE98DF9A08956D
:1000C000D99ADA9ADB9ADC9ADD98F7CFD998DA9A3E
:1000D000DB9ADC9804C0D99ADA98DB9ADC9ADD982E
:1000E00005C0D99ADA98DB9ADC9ADD9ADE9AE6CFD7
:1000F000D99AD8CFD99ADA9AF6CFD99AE8CF81B3DC
:10010000837F81BBA69AAE9A8AB38E6F8ABB80E04A
:100110000E943600C0E0829914C02FEF89EF90E072
:10012000215080409040E1F700C00000829906C055
:10013000C93009F0CF5F8C2F0E943600829BFECF22
:10014000EACF8399E8CF2FEF89EF90E021508040EC
:100150009040E1F700C00000839905C0C111C15073
:100160008C2F0E943600839BFECFD5CFEE0FFF1F52
:0C0170000590F491E02D0994F894FFCF65
:107E800011248FE598E09EBF8DBF24B614BE80E01C
:107E90007AD021FEDDC08EE076D0AFE7BFEF8099CB
:107EA000FECF9096809BFDCFB9B91197F1F782E094
:107EB0008BB988E18AB957D0C82F823559F467D079
:107EC000E0E8FEE7E058F109A89583E085D0309717
:107ED000C9F742C08D7F09F551D0D82F182F80E601
:107EE000E82EF12C40D0D7018D937D011150D1F7B0
:107EF0004ED0C1110EC0A0E6B0E0E199FECFFFBBAD
:107F0000EEBB8D918DBBE29AE19A3196D150A9F7E3
:107F100023C0A0E6B0E045D01FC0C33041F42ED04E
:107F2000C82F35D085911BD0C150E1F715C0C130A5
:107F300071F424D0C82F2BD0E199FECFFFBBEEBB4C
:107F4000E09A8DB30CD03196C150B1F705C0C13560
:107F500011F488E018D01BD08AE301D0ACCF5D9B30
:107F6000FECF8CB90895C09AB89A8BB187FFFDCF28
:107F700084FD10C0A8958CB1C0980895F4DFE82F57
:107F8000F2DFF82FF0CF98E191BD81BD0895EBDFCE
:107F9000803219F088E0F7DFFFCF80EAE0CFFB0105
:107FA000DC0160E86A0F9F01E0388EE7F807C8F44B
:107FB00083E012D0309629F48FE38D938FEC8C936D
:107FC000119781E00D901D9007D03296A613FACF3D
:107FD000F90185E001D081E187BFE89507B600FC93
:067FE000FDCF11240895FD
:067FFA000314D0CFE73FA5
:00000001FF
