:100000000C942A000C9434000C9434000C943400AA
:100010000C9434000C9434000C9434000C94340090
:100020000C9434000C9434000C9434000C94340080
:100030000C9434000C9434000C9434000C94340070
:100040000C9434000C9434000C9434000C94340060
:100050000C94340011241FBECFE5D8E0DEBFCDBF25
:100060000E947F000C94BC000C9400008A3038F58C
:10007000E82F880FFF0BE15CFF4F0C94B60049009E
:1000800051005800600066006B00710078007A0033
:100090007D00D99ADA9ADB9ADC9ADD9ADE9ADF98AB
:1000A0000895D998DA9ADB9ADC98DD98DE98F7CF34
:1000B000D99ADA98DB9ADC9ADD9ADE98DF9A08956D
:1000C000D99ADA9ADB9ADC9ADD98F7CFD998DA9A3E
:1000D000DB9ADC9804C0D99ADA98DB9ADC9ADD982E
:1000E00005C0D99ADA98DB9ADC9ADD9ADE9AE6CFD7
:1000F000D99AD8CFD99ADA9AF6CFD99AE8CF81B3DC
:10010000837F81BBA69AAE9A8AB38E6F8ABB80E04A
:100110000E943600C0E0829914C02FEF89EF90E072
:10012000215080409040E1F700C00000829906C055
:10013000C93009F0CF5F8C2F0E943600829BFECF22
:10014000EACF8399E8CF2FEF89EF90E021508040EC
:100150009040E1F700C00000839905C0C111C15073
:100160008C2F0E943600839BFECFD5CFEE0FFF1F52
:0C0170000590F491E02D0994F894FFCF65
:00000001FF
