:100000000C942A000C943C000C943C000C943E0090
:100010000C943C000C943C000C943C000C943C0070
:100020000C943C000C943C000C943C000C943C0060
:100030000C943C000C943C000C943C000C943C0050
:100040000C943C000C943C000C943C000C943C0040
:100050000C943C0011241FBECFE5D8E0DEBFCDBF1D
:1000600020E0A0E6B0E001C01D92A136B207E1F7A2
:100070000E9457000C9466000C9400001F920F928F
:100080000FB60F9211248F939F9385B3807F909129
:100090006000892B85BB809160008F5F809360003A
:1000A0009F918F910F900FBE0F901F901895BA9847
:1000B00084B7806484BF8BB780628BBF8FB7806842
:1000C0008FBF84B38F6084BBBA98FFCFF894FFCF03
:00000001FF
